:020000040800F2
:1000000000280020D9100008D50E0008DB0E0008DB
:10001000E10E0008E70E0008ED0E000800000000E9
:10002000000000000000000000000000F30E0008C7
:10003000FF0E0008000000000B0F0008170F00085B
:1000400021110008211100082111000821110008C8
:1000500021110008211100082111000821110008B8
:1000600021110008211100082111000821110008A8
:100070002111000821110008211100082111000898
:100080002111000821110008211100082111000888
:100090002111000821110008211100082111000878
:1000A0002111000821110008211100082111000868
:1000B000250F000821110008000000002111000890
:1000C00021110008000000000000000021110008BC
:1000D00000000000211100082111000800000000AC
:1000E0002111000821110008211100080000000062
:1000F0000000000000000000000000000000000000
:0C01000000000000000000005FF808F1A3
:10010C0010B5054C237833B9044B13B10448AFF345
:10011C0000800123237010BD44000020000000006B
:10012C007827000808B5034B1BB103490348AFF30C
:10013C00008008BD0000000048000020782700085F
:10014C0080B400AF064B1B68012B04D1044B00227A
:10015C001A60012300E000231846BD4680BC70479E
:10016C006400002080B400AF064B1B68012B04D147
:10017C00044B00221A60012300E000231846BD4600
:10018C0080BC70476800002080B400AF064B1B6831
:10019C00012B04D1044B00221A60012300E0002340
:1001AC001846BD4680BC70476000002080B400AF8C
:1001BC00064B1B68012B04D1044B00221A6001234F
:1001CC0000E000231846BD4680BC70476C00002040
:1001DC0080B400AF064B1B68012B04D1044B0022EA
:1001EC001A60012300E000231846BD4680BC70470E
:1001FC007000002080B400AF0C4B1B68002B02D1A8
:10020C000B4B01221A600B4B1B68002B02D10A4BC3
:10021C0001221A60094B1B68002B02D1084B0122EA
:10022C001A6000BFBD4680BC704700BF280000208C
:10023C00640000202C000020680000202400002016
:10024C006000002080B400AF084B1B68002B02D16B
:10025C00074B01221A60074B1B68002B02D1064B7F
:10026C0001221A6000BFBD4680BC704728000020E8
:10027C006C0000202C0000207000002080B500AF26
:10028C006F4B1B686F4A13606F4B1B686C4A136093
:10029C0008216E4801F02AFA03461A466A4B1A6086
:1002AC006B4B1B686B4A13606B4B1B68684A136083
:1002BC000421664801F01AFA03461A46664B1A6086
:1002CC00664B1B68664A1360664B1B68634A136077
:1002DC004FF40051644801F009FA03461A46614B89
:1002EC001A605B4B1A685B4B1B689A422DD1584BBA
:1002FC001A68594B1B689A4227D15C4B1A68564BAB
:10030C001B689A420ED0544B1B68584A1360524BD0
:10031C001B68002B19D1564B4FF496721A60FFF7DD
:10032C0069FF12E0524B1B68013B514A1360504B62
:10033C001B68002B09D1484B1B68002B01D1FFF720
:10034C0081FF4B4B4FF496721A60444B1A68444B26
:10035C001B689A422DD1414B1A68424B1B689A423A
:10036C0027D1444B1A683F4B1B689A420ED03D4B29
:10037C001B68404A13603B4B1B68002B19D13C4B4C
:10038C004FF496721A60FFF735FF12E0384B1B687A
:10039C00013B374A1360364B1B68002B09D1314B9C
:1003AC001B68002B01D1FFF74DFF314B4FF49672B8
:1003BC001A60234B1A68234B1B689A4225D1204B99
:1003CC001A68214B1B689A421FD12B4B1A681E4B83
:1003DC001B689A420DD01C4B1B68274A13601A4BA2
:1003EC001B68002B11D1224BC8221A60FFF702FFA9
:1003FC000BE01F4B1B68013B1D4A13601C4B1B6819
:10040C00002B02D11C4B01221A60184B1B68002BCD
:10041C0013D1184B1B68002B0FD1174B1B68002BEB
:10042C000BD1134B1B68013B114A1360104B1B681B
:10043C00002B02D1104B01221A6000BF80BD00BFFF
:10044C0004000020000000200800002000080140EB
:10045C00100000200C000020140000201C000020C4
:10046C00180000202000002000100140280000206F
:10047C00300000202C0000202400002080B500AFAC
:10048C007D4B1A787D4B1A707D4B1B68184600F01B
:10049C000BFA7A4B1B78032B00F2F08101A252F875
:1004AC0023F000BFC1040008970500089906000856
:1004BC0087070008734B1B68012B05D16E4B032279
:1004CC001A70012000F06CFDFFF73AFE0346002B7A
:1004DC0014D06B4B1B680133694A1360684B1B6863
:1004EC00092B02DD664B00221A60654B1B6818460F
:1004FC0000F0DAF94FF47A7000F06CFDFFF732FE81
:10050C000346002B14D05E4B1B68013B5C4A136006
:10051C005B4B1B68002B02DA594B09221A60584BB3
:10052C001B68184600F0C0F94FF47A7000F052FDC9
:10053C00FFF72AFE0346002B07D0514B00221A600E
:10054C004F4B1B68184600F0AFF9FFF72FFE034620
:10055C00002B09D0484B01221A70642000F006FDD4
:10056C004FF47A7000F036FDFFF732FE0346002B95
:10057C0000F08681404B02221A70642000F0F6FCD9
:10058C004FF47A7000F026FD7AE13E4B1B68012B8C
:10059C0005D1394B03221A70012000F001FDFFF741
:1005AC0005FE0346002B1BD0374B1B68012B17D1C4
:1005BC00334B1B680133324A1360314B1B68092BD8
:1005CC0002DD2F4B00221A602D4B1B68184600F0E1
:1005DC006BF9642000F0CAFC4FF47A7000F0FAFC5E
:1005EC00FFF7AEFD0346002B17D0254B1B680133DC
:1005FC00234A1360224B1B68092B02DD204B00227F
:10060C001A601F4B1B68184600F04EF91A4B00225B
:10061C001A704FF47A7000F0DDFCFFF7A3FD03466F
:10062C00002B17D0164B1B68013B154A1360144B5B
:10063C001B68002B02DA124B09221A60104B1B6844
:10064C00184600F031F90C4B00221A704FF47A70F6
:10065C0000F0C0FCFFF798FD0346002B00F0128160
:10066C00074B00221A60064B1B68184600F01CF959
:10067C00014B00221A7005E1750000207400002067
:10068C00780000209800002088000020814B1B6817
:10069C00012B05D1804B03221A70012000F080FC45
:1006AC00FFF796FD0346002B1BD07C4B1B68012BE0
:1006BC0017D17B4B1B68013B794A1360784B1B6845
:1006CC00002B02DA764B09221A60754B1B68184610
:1006DC0000F0EAF8642000F049FC4FF47A7000F066
:1006EC0079FCFFF72DFD0346002B17D06C4B1B68D4
:1006FC0001336B4A13606A4B1B68092B02DD684B94
:10070C0000221A60664B1B68184600F0CDF8624B4D
:10071C0000221A704FF47A7000F05CFCFFF722FD97
:10072C000346002B17D05E4B1B68013B5C4A1360E1
:10073C005B4B1B68002B02DA594B09221A60584B91
:10074C001B68184600F0B0F8534B00221A704FF497
:10075C007A7000F03FFCFFF717FD0346002B00F00A
:10076C0093804F4B00221A604D4B1B68184600F0CB
:10077C009BF8494B00221A7086E04A4B1B68012BF0
:10078C0013D1474B1B68013B454A1360444B1B6814
:10079C00002B02DA424B00221A60414B1B681846B0
:1007AC0000F082F8642000F0FBFBFFF7C9FC034665
:1007BC00002B17D03A4B1B680133394A1360384B66
:1007CC001B68092B02DD364B00221A60344B1B6868
:1007DC00184600F069F8304B00221A704FF47A700A
:1007EC0000F0F8FBFFF7BEFC0346002B17D02C4B98
:1007FC001B68013B2A4A1360294B1B68002B02DA49
:10080C00274B09221A60264B1B68184600F04CF83F
:10081C00214B00221A704FF47A7000F0DBFBFFF7CB
:10082C00B3FC0346002B0AD01D4B00221A601C4B54
:10083C001B68184600F038F8174B00221A70FFF7A7
:10084C00B5FC0346002B09D0134B01221A7064200F
:10085C0000F08CFB4FF47A7000F0BCFBFFF7B8FC97
:10086C000346002B12D00C4B02221A70642000F0AD
:10087C007DFB4FF47A7000F0ADFB07E000BF06E0A3
:10088C0000BF04E000BF02E000BF00E000BF00BFFB
:10089C0080BD00BF9800002075000020880000205B
:1008AC00780000209000002080B582B000AF786006
:1008BC007B68092B00F2808101A252F823F000BF63
:1008CC00F50800083D09000885090008CD09000855
:1008DC00150A00085D0A0008A50A0008ED0A0008C0
:1008EC00350B00087D0B000800220121B44800F0F4
:1008FC0014FF00220221B24800F00FFF0022042155
:10090C00AF4800F00AFF00220821AD4800F005FFB7
:10091C0000221021AA4800F000FF00222021A84844
:10092C0000F0FBFE01224021A54800F0F6FE43E159
:10093C0001220121A24800F0F0FE00220221A04871
:10094C0000F0EBFE002204219D4800F0E6FE01229F
:10095C0008219B4800F0E1FE01221021984800F08C
:10096C00DCFE01222021964800F0D7FE0122402116
:10097C00934800F0D2FE1FE100220121904800F0C4
:10098C00CCFE002202218E4800F0C7FE0122042179
:10099C008B4800F0C2FE00220821894800F0BDFE01
:1009AC0000221021864800F0B8FE01222021844844
:1009BC0000F0B3FE00224021814800F0AEFEFBE0C7
:1009CC00002201217E4800F0A8FE002202217C4872
:1009DC0000F0A3FE00220421794800F09EFE0022C4
:1009EC000821774800F099FE01221021744800F08C
:1009FC0094FE01222021724800F08FFE002240213B
:100A0C006F4800F08AFED7E0012201216C4800F00B
:100A1C0084FE002202216A4800F07FFE002204219D
:100A2C00674800F07AFE01220821654800F075FE47
:100A3C0001221021624800F070FE00222021604843
:100A4C0000F06BFE002240215D4800F066FEB3E032
:100A5C00002201215A4800F060FE01220221584870
:100A6C0000F05BFE00220421554800F056FE0022E7
:100A7C000821534800F051FE01221021504800F08B
:100A8C004CFE002220214E4800F047FE002240215F
:100A9C004B4800F042FE8FE000220121484800F054
:100AAC003CFE01220221464800F037FE00220421C0
:100ABC00434800F032FE00220821414800F02DFE90
:100ACC00002210213E4800F028FE002220213C4844
:100ADC0000F023FE00224021394800F01EFE6BE09E
:100AEC0000220121364800F018FE00220221344871
:100AFC0000F013FE00220421314800F00EFE01220A
:100B0C0008212F4800F009FE012210212C4800F08A
:100B1C0004FE012220212A4800F0FFFD0122402181
:100B2C00274800F0FAFD47E000220121244800F09C
:100B3C00F4FD00220221224800F0EFFD00220421E6
:100B4C001F4800F0EAFD002208211D4800F0E5FDD9
:100B5C00002210211A4800F0E0FD00222021184844
:100B6C0000F0DBFD00224021154800F0D6FD23E00B
:100B7C0000220121124800F0D0FD00220221104871
:100B8C0000F0CBFD002204210D4800F0C6FD002230
:100B9C0008210B4800F0C1FD01221021084800F08B
:100BAC00BCFD00222021064800F0B7FD00224021A8
:100BBC00034800F0B2FD00BF00BF0837BD4680BD42
:100BCC00000C014080B500AF00F0A6FA00F01EF852
:100BDC0000F058F800F0A2F8094801F007FA642078
:100BEC0000F0AAF9FFF74AFC064B1B68012BF9D160
:100BFC002021054800F0A9FD642000F09DF9F1E7E3
:100C0C009C000020800000200008014080B590B0BE
:100C1C0000AF07F1180328220021184601F09EFDB1
:100C2C003B1D00221A605A609A60DA601A61022336
:100C3C00BB610123BB621023FB6200237B6307F1C2
:100C4C001803184600F09AFD0346002B01D000F063
:100C5C00DFF80F237B600023BB600023FB600023C5
:100C6C003B6100237B613B1D0021184601F006F817
:100C7C000346002B01D000F0CBF800BF4037BD4637
:100C8C0080BD000080B586B000AF07F108030022DC
:100C9C001A605A609A60DA603B4600221A605A6009
:100CAC001D4B4FF080421A601B4B41F63F725A604D
:100CBC00194B00229A60184B0922DA60164B00225D
:100CCC001A61154B00229A61134801F03FF9034653
:100CDC00002B01D000F09CF84FF48053BB6007F15F
:100CEC00080319460C4801F0D5FA0346002B01D035
:100CFC0000F08EF800233B6000237B603B461946D6
:100D0C00054801F09DFC0346002B01D000F080F853
:100D1C0000BF1837BD4680BD9C00002080B588B050
:100D2C0000AF07F1100300221A605A609A60DA6073
:100D3C00334B9B69324A43F010039361304B9B69F0
:100D4C0003F01003FB60FB682D4B9B692C4A43F0AE
:100D5C00040393612A4B9B6903F00403BB60BB68DB
:100D6C00274B9B69264A43F008039361244B9B69EC
:100D7C0003F008037B607B6800222021214800F0EF
:100D8C00CCFC00227F21204800F0C7FC4FF400531C
:100D9C003B6100237B610123BB6107F11003194602
:100DAC001A4800F029FB4C233B6100237B61012393
:100DBC00BB6107F110031946124800F01DFB2023FC
:100DCC003B6101237B610023BB610223FB6107F1C3
:100DDC00100319460B4800F00FFB7F233B610123E6
:100DEC007B610023BB610223FB6107F110031946F1
:100DFC00054800F001FB00BF2037BD4680BD00BF99
:100E0C000010024000080140000C0140001001409D
:100E1C0080B400AF72B600BFFEE7000080B485B0AE
:100E2C0000AF154B9B69144A43F001039361124BBD
:100E3C009B6903F00103BB60BB680F4BDB690E4A77
:100E4C0043F08053D3610C4BDB6903F080537B6020
:100E5C007B680A4B5B68FB60FB6823F0E063FB601C
:100E6C00FB6843F08063FB60044AFB68536000BF7F
:100E7C001437BD4680BC7047001002400000014092
:100E8C0080B584B000AF78607B681B68B3F1804F8D
:100E9C0013D10C4BDB690B4A43F00103D361094BB3
:100EAC00DB6903F00103FB60FB68002200211C20BE
:100EBC0000F06BFA1C2000F084FA00BF1037BD461E
:100ECC0080BD00BF0010024080B400AFFEE780B4CC
:100EDC0000AFFEE780B400AFFEE780B400AFFEE7E2
:100EEC0080B400AFFEE780B400AF00BFBD4680BC4D
:100EFC00704780B400AF00BFBD4680BC704780B463
:100F0C0000AF00BFBD4680BC704780B500AF00F09D
:100F1C0049F900BF80BD000080B500AF024801F068
:100F2C00B1F800BF80BD00BF9C00002080B400AFB2
:100F3C0000BFBD4680BC704780B483B000AF786002
:100F4C00074B1B687A6892FBF3F3064A1360064B57
:100F5C0000221A6000BF0C37BD4680BC704700BF32
:100F6C00380000207C0000208000002080B483B07A
:100F7C0000AF7860074B1B687A6892FBF3F3064A64
:100F8C001360064B00221A6000BF0C37BD4680BCB4
:100F9C00704700BF3800002084000020880000202B
:100FAC0080B483B000AF7860074B1B687A6892FB03
:100FBC00F3F3064A1360064B00221A6000BF0C378D
:100FCC00BD4680BC704700BF380000208C0000205C
:100FDC009000002080B483B000AF7860074B1B6892
:100FEC007A6892FBF3F3064A1360064B00221A60F0
:100FFC0000BF0C37BD4680BC704700BF38000020D6
:10100C00940000209800002080B400AF214B1B6896
:10101C00002B0BDD1F4B1B68013B1E4A13601D4B45
:10102C001B68002B02D11C4B01221A601B4B1B6846
:10103C00002B0BDD194B1B68013B184A1360174B37
:10104C001B68002B02D1164B01221A60154B1B6832
:10105C00002B0BDD134B1B68013B124A1360114B29
:10106C001B68002B02D1104B01221A600F4B1B681E
:10107C00002B0BDD0D4B1B68013B0C4A13600B4B1B
:10108C001B68002B02D10A4B01221A6000BFBD461F
:10109C0080BC70477C000020800000208400002071
:1010AC00880000208C00002090000020940000207C
:1010BC009800002080B582B000AF7860FFF7A4FFE5
:1010CC00FFF7DCF800BF0837BD4680BD0C480D4962
:1010DC000D4A002302E0D458C4500433C4188C4287
:1010EC00F9D30A4A0A4C002301E013600432A242ED
:1010FC00FBD3FFF71BFF01F00DFBFFF763FD704700
:10110C000000002044000020B82700084400002004
:10111C00E8000020FEE7000080B500AF084B1B681C
:10112C00074A43F010031360032000F023F90F204B
:10113C0000F008F8FFF772FE0023184680BD00BFD0
:10114C000020024080B582B000AF7860124B1A6864
:10115C00124B1B7819464FF47A73B3FBF1F3B2FBC5
:10116C00F3F3184600F03BF90346002B01D00123A2
:10117C000EE07B680F2B0AD8002279684FF0FF3005
:10118C0000F003F9064A7B681360002300E001239A
:10119C0018460837BD4680BD3400002040000020B2
:1011AC003C00002080B400AF054B1B781A46054B61
:1011BC001B681344034A136000BFBD4680BC7047D4
:1011CC0040000020E400002080B400AF024B1B68FC
:1011DC001846BD4680BC7047E400002080B485B042
:1011EC0000AF78607B6803F00703FB600C4BDB6897
:1011FC00BB60BA684FF6FF031340BB60FB681A0272
:10120C00BB68134343F0BF6343F40033BB60044A31
:10121C00BB68D36000BF1437BD4680BC704700BFAD
:10122C0000ED00E080B400AF044BDB681B0A03F058
:10123C0007031846BD4680BC704700BF00ED00E0B8
:10124C0080B483B000AF0346FB7197F90730002BD5
:10125C000BDBFB7903F01F02064997F907305B099A
:10126C00012000FA02F241F8232000BF0C37BD46E2
:10127C0080BC704700E100E080B483B000AF03464F
:10128C003960FB7197F90730002B0ADB3B68DAB247
:10129C000C4997F907301201D2B20B4483F80023A2
:1012AC000AE03B68DAB20849FB7903F00F03043B10
:1012BC001201D2B20B441A7600BF0C37BD4680BC6B
:1012CC00704700BF00E100E000ED00E080B489B0A1
:1012DC0000AFF860B9607A60FB6803F00703FB614C
:1012EC00FB69C3F10703042B28BF0423BB61FB6913
:1012FC000433062B02D9FB69033B00E000237B611E
:10130C004FF0FF32BB6902FA03F3DA43BB681A40B1
:10131C007B699A404FF0FF317B6901FA03F3D943A3
:10132C007B680B40134318462437BD4680BC70477E
:10133C0080B582B000AF78607B68013BB3F1807FF1
:10134C0001D301230FE00A4A7B68013B53600F2154
:10135C004FF0FF30FFF790FF054B00229A60044BD3
:10136C0007221A60002318460837BD4680BD00BF0F
:10137C0010E000E080B582B000AF78607868FFF7CD
:10138C002DFF00BF0837BD4680BD80B586B000AFCD
:10139C000346B9607A60FB7300237B61FFF742FF61
:1013AC0078617A68B9687869FFF790FF024697F917
:1013BC000F3011461846FFF75FFF00BF1837BD46C8
:1013CC0080BD80B582B000AF0346FB7197F9073042
:1013DC001846FFF735FF00BF0837BD4680BD80B506
:1013EC0082B000AF78607868FFF7A2FF034618461A
:1013FC000837BD4680BD000080B48BB000AF78606C
:10140C00396000237B6200233B6248E101227B6A46
:10141C0002FA03F3FB613B681B68FA691340BB617A
:10142C00BA69FB699A4240F037813B685B68A34A12
:10143C0093425ED0A14A934275D8A14A934258D0A8
:10144C009F4A93426FD89F4A934252D09D4A9342EF
:10145C0069D89D4A93424CD09B4A934263D89B4A8D
:10146C00934246D0994A93425DD8122B2AD8122B1C
:10147C0059D801A252F823F0FF140008D91400081F
:10148C00EB1400082D15000833150008331500085F
:10149C003315000833150008331500083315000800
:1014AC0033150008331500083315000833150008F0
:1014BC00331500083315000833150008E114000833
:1014CC00F5140008824A934213D02CE03B68DB6889
:1014DC003B6229E03B68DB6804333B6224E03B68F9
:1014EC00DB6808333B621FE03B68DB680C333B6214
:1014FC001AE03B689B68002B02D104233B6213E08B
:10150C003B689B68012B05D108233B627B68FA6919
:10151C001A6109E008233B627B68FA695A6103E0AF
:10152C0000233B6200E000BFBB69FF2B01D87B6846
:10153C0001E07B6804337B61BB69FF2B02D87B6ABB
:10154C009B0002E07B6A083B9B003B617B691A684D
:10155C000F213B6901FA03F3DB431A40396A3B69FB
:10156C0001FA03F31A437B691A603B685B6803F06A
:10157C008053002B00F09080564B9B69554A43F0EA
:10158C0001039361534B9B6903F00103BB60BB6880
:10159C00514A7B6A9B08023352F82330FB607B6A0A
:1015AC0003F003039B000F2202FA03F3DB43FA68F8
:1015BC001340FB607B68494A93420DD07B68484AD4
:1015CC00934207D07B68474A934201D1022304E03F
:1015DC00032302E0012300E000237A6A02F00302F5
:1015EC0092009340FA681343FB603B497B6A9B086B
:1015FC000233FA6841F823203B685B6803F48033BC
:10160C00002B06D0384B1A683749BB6913430B6063
:10161C0006E0354B1A68BB69DB43334913400B605A
:10162C003B685B6803F40033002B06D02E4B5A68E2
:10163C002D49BB6913434B6006E02B4B5A68BB69C1
:10164C00DB43294913404B603B685B6803F4801310
:10165C00002B06D0244B9A682349BB6913438B603B
:10166C0006E0214B9A68BB69DB431F4913408B6032
:10167C003B685B6803F40013002B06D01A4BDA6846
:10168C001949BB691343CB6006E0174BDA68BB6999
:10169C00DB4315491340CB607B6A01337B623B68AB
:1016AC001A687B6A22FA03F3002B7FF4AFAE00BFFB
:1016BC0000BF2C37BD4680BC704700BF0000321005
:1016CC000000311000002210000021100000121048
:1016DC000000111000100240000001400008014001
:1016EC00000C0140001001400004014080B485B0A2
:1016FC0000AF78600B467B807B689A687B881340D0
:10170C00002B02D00123FB7301E00023FB73FB7B56
:10171C0018461437BD4680BC704780B483B000AF08
:10172C0078600B467B8013467B707B78002B03D054
:10173C007A887B681A6103E07B881A047B681A61DB
:10174C0000BF0C37BD4680BC704780B485B000AF7D
:10175C0078600B467B807B68DB68FB607A88FB6873
:10176C0013401A04FB68D9437B880B401A437B68EF
:10177C001A6100BF1437BD4680BC704780B586B077
:10178C0000AF78607B68002B01D101236CE27B6891
:10179C001B6803F00103002B00F08780924B5B6801
:1017AC0003F00C03042B0CD08F4B5B6803F00C0381
:1017BC00082B12D18C4B5B6803F48033B3F5803F5C
:1017CC000BD1894B1B6803F40033002B6CD07B6866
:1017DC005B68002B68D1012346E27B685B68B3F53C
:1017EC00803F06D1804B1B687F4A43F480331360E3
:1017FC002EE07B685B68002B0CD17B4B1B687A4A14
:10180C0023F480331360784B1B68774A23F48023CE
:10181C0013601DE07B685B68B3F5A02F0CD1724B95
:10182C001B68714A43F4802313606F4B1B686E4A2C
:10183C0043F4803313600BE06B4B1B686A4A23F450
:10184C0080331360684B1B68674A23F48023136052
:10185C007B685B68002B13D0FFF7B6FC386108E09F
:10186C00FFF7B2FC02463B69D31A642B01D9032360
:10187C00FAE15D4B1B6803F40033002BF0D014E04D
:10188C00FFF7A2FC386108E0FFF79EFC02463B69BB
:10189C00D31A642B01D90323E6E1534B1B6803F4E1
:1018AC000033002BF0D100E000BF7B681B6803F015
:1018BC000203002B63D04C4B5B6803F00C03002B32
:1018CC000BD0494B5B6803F00C03082B1CD1464B27
:1018DC005B6803F48033002B16D1434B1B6803F079
:1018EC000203002B05D07B681B69012B01D001235F
:1018FC00BAE13D4B1B6823F0F8027B685B69DB00A7
:10190C00394913430B603AE07B681B69002B20D0EC
:10191C00364B01221A60FFF757FC386108E0FFF7DD
:10192C0053FC02463B69D31A022B01D903239BE1DA
:10193C002D4B1B6803F00203002BF0D02A4B1B68C5
:10194C0023F0F8027B685B69DB00274913430B60CB
:10195C0015E0264B00221A60FFF736FC386108E0D0
:10196C00FFF732FC02463B69D31A022B01D9032341
:10197C007AE11D4B1B6803F00203002BF0D17B684E
:10198C001B6803F00803002B3AD07B689B69002B83
:10199C0019D0174B01221A60FFF716FC386108E0CA
:1019AC00FFF712FC02463B69D31A022B01D9032321
:1019BC005AE10D4B5B6A03F00203002BF0D00120BF
:1019CC0000F0A6FA1CE00A4B00221A60FFF7FCFBA1
:1019DC0038610FE0FFF7F8FB02463B69D31A022B84
:1019EC0008D9032340E100BF00100240000042422E
:1019FC00800442429E4B5B6A03F00203002BE9D148
:101A0C007B681B6803F00403002B00F0A680002306
:101A1C00FB75974BDB6903F08053002B0DD1944B76
:101A2C00DB69934A43F08053D361914BDB6903F03C
:101A3C008053BB60BB680123FB758E4B1B6803F4A2
:101A4C008073002B18D18B4B1B688A4A43F480732C
:101A5C001360FFF7B9FB386108E0FFF7B5FB0246EE
:101A6C003B69D31A642B01D90323FDE0814B1B681E
:101A7C0003F48073002BF0D07B68DB68012B06D15C
:101A8C007B4B1B6A7A4A43F0010313622DE07B689F
:101A9C00DB68002B0CD1764B1B6A754A23F00103D3
:101AAC001362734B1B6A724A23F0040313621CE02B
:101ABC007B68DB68052B0CD16D4B1B6A6C4A43F0C1
:101ACC00040313626A4B1B6A694A43F001031362F5
:101ADC000BE0674B1B6A664A23F001031362644BED
:101AEC001B6A634A23F0040313627B68DB68002BD8
:101AFC0015D0FFF769FB38610AE0FFF765FB02467A
:101B0C003B69D31A41F28832934201D90323ABE0EB
:101B1C00574B1B6A03F00203002BEED014E0FFF7C7
:101B2C0053FB38610AE0FFF74FFB02463B69D31ABF
:101B3C0041F28832934201D9032395E04C4B1B6A46
:101B4C0003F00203002BEED1FB7D012B05D1484B9A
:101B5C00DB69474A23F08053D3617B68DB69002B38
:101B6C0000F08180424B5B6803F00C03082B61D0C2
:101B7C007B68DB69022B46D13F4B00221A60FFF7D2
:101B8C0023FB386108E0FFF71FFB02463B69D31AC1
:101B9C00022B01D9032367E0354B1B6803F000735C
:101BAC00002BF0D17B681B6AB3F5803F08D1304B1A
:101BBC005B6823F400327B689B682D4913434B60B0
:101BCC002B4B5B6823F474127B68196A7B685B6A25
:101BDC000B43274913434B60274B01221A60FFF735
:101BEC00F3FA386108E0FFF7EFFA02463B69D31AC3
:101BFC00022B01D9032337E01D4B1B6803F0007344
:101C0C00002BF0D02FE01C4B00221A60FFF7DCFAFF
:101C1C00386108E0FFF7D8FA02463B69D31A022B69
:101C2C0001D9032320E0124B1B6803F00073002B37
:101C3C00F0D118E07B68DB69012B01D1012313E0A3
:101C4C000B4B5B68FB60FB6803F480327B681B6AA0
:101C5C009A4206D1FB6803F470127B685B6A9A4265
:101C6C0001D0012300E0002318461837BD4680BD83
:101C7C0000100240007000406000424280B584B009
:101C8C0000AF786039607B68002B01D10123D0E074
:101C9C006A4B1B6803F007033A689A4210D9674BEA
:101CAC001B6823F0070265493B6813430B60634BC9
:101CBC001B6803F007033A689A4201D00123B8E08D
:101CCC007B681B6803F00203002B20D07B681B6829
:101CDC0003F00403002B05D0594B5B68584A43F4BE
:101CEC00E06353607B681B6803F00803002B05D08E
:101CFC00534B5B68524A43F460535360504B5B68E0
:101D0C0023F0F0027B689B684D4913434B607B6862
:101D1C001B6803F00103002B40D07B685B68012B30
:101D2C0007D1474B1B6803F40033002B15D101235B
:101D3C007FE07B685B68022B07D1414B1B6803F08B
:101D4C000073002B09D1012373E03D4B1B6803F09A
:101D5C000203002B01D101236BE0394B5B6823F0AC
:101D6C0003027B685B68364913434B60FFF72CFA20
:101D7C00F8600AE0FFF728FA0246FB68D31A41F232
:101D8C008832934201D9032353E02D4B5B6803F057
:101D9C000C027B685B689B009A42EBD1274B1B685B
:101DAC0003F007033A689A4210D2244B1B6823F0C5
:101DBC00070222493B6813430B60204B1B6803F05E
:101DCC0007033A689A4201D0012332E07B681B6812
:101DDC0003F00403002B08D0194B5B6823F4E0627A
:101DEC007B68DB68164913434B607B681B6803F008
:101DFC000803002B09D0124B5B6823F460527B68FC
:101E0C001B69DB000E4913434B6000F021F80246BE
:101E1C000B4B5B681B0903F00F030A49CB5C22FADE
:101E2C0003F3094A1360094B1B681846FFF78AF93C
:101E3C00002318461037BD4680BD00BF002002406D
:101E4C0000100240A0270008340000203C000020B5
:101E5C0090B48AB000AF2A4B3C1D0FCB84E80F0026
:101E6C0040F201233B800023FB610023BB61002374
:101E7C007B6200237B6100233B62224B5B68FB612E
:101E8C00FB6903F00C03042B02D0082B03D02DE0CC
:101E9C001D4B3B622DE0FB699B0C03F00F0307F11C
:101EAC002802134413F8243C7B61FB6903F4803350
:101EBC00002B13D0134B5B685B0C03F0010307F191
:101ECC002802134413F8283CBB617B690E4A02FBC1
:101EDC0003F2BB69B2FBF3F37B6204E07B690B4A50
:101EEC0002FB03F37B627B6A3B6202E0064B3B62C4
:101EFC0000BF3B6A18462837BD4690BC704700BFF0
:101F0C00902700080010024000127A0000093D00E2
:101F1C0080B485B000AF78600A4B1B680A4AA2FBFC
:101F2C0003235B0A7A6802FB03F3FB6000BFFB68C8
:101F3C005A1EFA60002BF9D100BF00BF1437BD4602
:101F4C0080BC704734000020D34D621080B582B045
:101F5C0000AF78607B68002B01D1012341E07B68E6
:101F6C0093F83D30DBB2002B06D17B68002283F85E
:101F7C003C207868FEF784FF7B68022283F83D20C2
:101F8C007B681A687B6804331946104600F06AFABD
:101F9C007B68012283F846207B68012283F83E206F
:101FAC007B68012283F83F207B68012283F8402064
:101FBC007B68012283F841207B68012283F8422050
:101FCC007B68012283F843207B68012283F844203C
:101FDC007B68012283F845207B68012283F83D2031
:101FEC00002318460837BD4680BD000080B485B07C
:101FFC0000AF78607B6893F83D30DBB2012B01D0E9
:10200C00012335E07B68022283F83D207B681B6846
:10201C00DA687B681B6842F00102DA607B681B6837
:10202C00164A934209D07B681B68B3F1804F04D0E9
:10203C007B681B68124A934211D17B681B689B68B2
:10204C0003F00703FB60FB68062B10D07B681B6852
:10205C001A687B681B6842F001021A6007E07B6813
:10206C001B681A687B681B6842F001021A60002327
:10207C0018461437BD4680BC704700BF002C014089
:10208C000004004080B582B000AF78607B681B68AC
:10209C001B6903F00203022B22D17B681B68DB68EF
:1020AC0003F00203022B1BD17B681B686FF002024A
:1020BC001A617B6801221A777B681B689B6903F0A5
:1020CC000303002B03D0786800F0B1F905E07868C1
:1020DC0000F0A4F9786800F0B3F97B6800221A7755
:1020EC007B681B681B6903F00403042B22D17B68FB
:1020FC001B68DB6803F00403042B1BD17B681B6893
:10210C006FF004021A617B6802221A777B681B68E5
:10211C009B6903F44073002B03D0786800F087F9B7
:10212C0005E0786800F07AF9786800F089F97B6846
:10213C0000221A777B681B681B6903F00803082BC5
:10214C0022D17B681B68DB6803F00803082B1BD1CA
:10215C007B681B686FF008021A617B6804221A778F
:10216C007B681B68DB6903F00303002B03D07868E2
:10217C0000F05DF905E0786800F050F9786800F03F
:10218C005FF97B6800221A777B681B681B6903F078
:10219C001003102B22D17B681B68DB6803F0100343
:1021AC00102B1BD17B681B686FF010021A617B68C7
:1021BC0008221A777B681B68DB6903F44073002BD9
:1021CC0003D0786800F033F905E0786800F026F960
:1021DC00786800F035F97B6800221A777B681B68F9
:1021EC001B6903F00103012B0ED17B681B68DB68B4
:1021FC0003F00103012B07D17B681B686FF0010210
:10220C001A617868FEF756FF7B681B681B6903F040
:10221C008003802B0ED17B681B68DB6803F0800386
:10222C00802B07D17B681B686FF080021A6178687D
:10223C0000F067FA7B681B681B6903F04003402BB6
:10224C000ED17B681B68DB6803F04003402B07D181
:10225C007B681B686FF040021A61786800F0F9F82F
:10226C007B681B681B6903F02003202B0ED17B6855
:10227C001B68DB6803F02003202B07D17B681B68ED
:10228C006FF020021A61786800F032FA00BF08374C
:10229C00BD4680BD80B584B000AF786039607B6886
:1022AC0093F83C30012B01D10223B3E07B6801226F
:1022BC0083F83C207B68022283F83D207B681B68F6
:1022CC009B68FB60FB6823F07703FB60FB6823F4DF
:1022DC007F43FB607B681B68FA689A603B681B68ED
:1022EC00B3F5005F3ED0B3F5005F00F28780B3F525
:1022FC00805F00F08580B3F5805F7FD8702B1AD09B
:10230C00702B7BD8602B50D0602B77D8502B3CD0C7
:10231C00502B73D8402B58D0402B6FD8302B64D017
:10232C00302B6BD8202B60D0202B67D8002B5CD0A7
:10233C00102B5AD062E07B6818683B6899683B6840
:10234C005A683B68DB6800F05CF97B681B689B682B
:10235C00FB60FB6843F07703FB607B681B68FA68E3
:10236C009A604EE07B6818683B6899683B685A68CD
:10237C003B68DB6800F045F97B681B689A687B68F2
:10238C001B6842F480429A603BE07B6818683B68AB
:10239C0059683B68DB681A4600F0BCF87B681B6820
:1023AC005021184600F013F92BE07B6818683B6845
:1023BC0059683B68DB681A4600F0DAF87B681B68E2
:1023CC006021184600F003F91BE07B6818683B6835
:1023DC0059683B68DB681A4600F09CF87B681B6800
:1023EC004021184600F0F3F80BE07B681A683B6854
:1023FC001B681946104600F0EAF802E000BF00E046
:10240C0000BF7B68012283F83D207B68002283F8A3
:10241C003C20002318461037BD4680BD80B483B0E5
:10242C0000AF786000BF0C37BD4680BC704780B4ED
:10243C0083B000AF786000BF0C37BD4680BC7047DE
:10244C0080B483B000AF786000BF0C37BD4680BC51
:10245C00704780B483B000AF786000BF0C37BD46C6
:10246C0080BC704780B485B000AF786039607B6801
:10247C001B68FB607B68254A934207D07B68B3F1ED
:10248C00804F03D07B68224A934208D1FB6823F02B
:10249C007003FB603B685B68FA681343FB607B6806
:1024AC001A4A934207D07B68B3F1804F03D07B6804
:1024BC00174A934208D1FB6823F44073FB603B68D6
:1024CC00DB68FA681343FB60FB6823F080023B680F
:1024DC005B691343FB607B68FA681A603B689A6817
:1024EC007B68DA623B681A687B689A627B68074A89
:1024FC00934203D13B681A697B681A637B6801229B
:10250C005A6100BF1437BD4680BC7047002C014097
:10251C000004004080B487B000AFF860B9607A6006
:10252C00FB681B6A7B61FB681B6A23F00102FB687A
:10253C001A62FB689B693B613B6923F0F0033B61CA
:10254C007B681B013A6913433B617B6923F00A03E7
:10255C007B617A69BB6813437B61FB683A699A615A
:10256C00FB687A691A6200BF1C37BD4680BC704795
:10257C0080B487B000AFF860B9607A60FB681B6A02
:10258C0023F01002FB681A62FB689B697B61FB6895
:10259C001B6A3B617B6923F470437B617B681B0383
:1025AC007A6913437B613B6923F0A0033B61BB68F1
:1025BC001B013A6913433B61FB687A699A61FB68BA
:1025CC003A691A6200BF1C37BD4680BC704780B4A4
:1025DC0085B000AF786039607B689B68FB60FB68F6
:1025EC0023F07003FB603A68FB68134343F0070366
:1025FC00FB607B68FA689A6000BF1437BD4680BCEC
:10260C00704780B487B000AFF860B9607A603B6007
:10261C00FB689B687B617B6923F47F437B613B6830
:10262C001A027B681A43BB6813437A6913437B61B4
:10263C00FB687A699A6000BF1C37BD4680BC704746
:10264C0080B485B000AF786039607B6893F83C301B
:10265C00012B01D1022341E07B68012283F83C204D
:10266C007B68022283F83D207B681B685B68FB60FB
:10267C007B681B689B68BB60FB6823F07003FB6086
:10268C003B681B68FA681343FB607B681B68FA683D
:10269C005A607B681B68144A934209D07B681B689C
:1026AC00B3F1804F04D07B681B68104A93420CD165
:1026BC00BB6823F08003BB603B685B68BA6813435C
:1026CC00BB607B681B68BA689A607B68012283F8E0
:1026DC003D207B68002283F83C20002318461437E9
:1026EC00BD4680BC704700BF002C01400004004078
:1026FC0080B483B000AF786000BF0C37BD4680BC9F
:10270C00704780B483B000AF786000BF0C37BD4613
:10271C0080BC704770B500260C4D0D4C641BA4108A
:10272C00A64209D100F022F800260A4D0A4C641B7F
:10273C00A410A64205D170BD55F8043B984701364C
:10274C00EEE755F8043B98470136F2E7B02700084E
:10275C00B0270008B0270008B4270008034602443D
:10276C00934200D1704703F8011BF9E7F8B500BF9D
:10277C00F8BC08BC9E467047F8B500BFF8BC08BC56
:04278C009E467047AE
:1027900002030405060708090A0B0C0D0E0F1010A2
:1027A0000000000000000000010203040607080901
:0427B00031010008EB
:0427B4000D0100080B
:1027B800010000000100000001000000010000000D
:1027C80001000000010000000100000001000000FD
:1027D80001000000010000000100000001000000ED
:1027E8002C0100000024F40001000000100000008B
:0427F80001000000DC
:04000005080010D906
:00000001FF
